:100000000C940F010C946A050C9443050C941C0588
:100010000C94F5040C9437010C9437010C94CE0425
:100020000C9437010C9441080C9491050C94030630
:100030000C9437010C9437010C9437010C94370160
:100040000C9437010C9437010C9437010C94370150
:100050000C9437010C9437010C9437010C948404F0
:100060000C9437010C9437010C9437010C94370130
:100070000C9437010C9437010C9437010C94370120
:100080000C9437010C9437010C9437010C94370110
:100090000C9437010C9437010C9437010C94370100
:1000A0000C9437010C9437010C9437014C034F0327
:1000B0003E03420346037003700370035303570368
:1000C0005B036103650370036B03084AD73B3BCEB8
:1000D000016E84BCBFFDC12F3D6C74319ABD568347
:1000E0003DDA3D00C77F11BED9E4BB4C3E916BAAFF
:1000F000AABE000000803F05A84CCDB2D44EB9384E
:1001000036A9020C50B9918688083CA6AAAA2ABE34
:10011000000000803F0000000000250028002B00A8
:100120002E00310000000000240027002A002D00CE
:100130003000000000002300260029002C002F00C2
:10014000040404040403040502020202040302027C
:10015000020206060606060604040202020404045D
:1001600008020110408040102040804080080204B6
:10017000018040201002011080102040402000002B
:10018000000200090F0000030401000C0000000041
:1001900000000000000000000000000000080B004C
:1001A000020202010009040000010202000005240D
:1001B00000100105240101010424020605240600A3
:1001C000010705810310004009040100020A000034
:1001D00000070502024000000705830240000004FA
:1001E00003090412010002EF020140FB1F0023007B
:1001F0000101020301506F6C6F6C7520436F7270C8
:100200006F726174696F6E00506F6C6F6C75204116
:100210002D53746172203332553400006F11112454
:100220001FBECFEFDAE0DEBFCDBF11E0A0E0B1E04E
:10023000EAEEFAE202C005900D92A038B107D9F7B4
:1002400022E0A0E8B1E001C01D92A234B207E1F7BC
:1002500011E0CFE0D1E004C02197FE010E94C5115A
:10026000CE30D107C9F70E9455100C9473150C9429
:10027000000008954091990150919A0120919701B1
:100280003091980142175307B4F49091E8009570AB
:10029000E1F39091E80092FD19C08093F100809104
:1002A000990190919A0101968F739927892B19F4DE
:1002B0008EEF8093E8008091990190919A010196C8
:1002C00090939A018093990181E0089580E00895C8
:1002D000DF92EF92FF920F931F93CF93DF93D82E6D
:1002E000F92EE42E062F10E0C8010196880F0E9417
:1002F0003A0183E00E943A01CD2DDF2D0C0F1D1F26
:10030000C017D10789F0E7FE03C0FE01849101C048
:1003100088810E943A01F82E80E00E943A018F21E4
:1003200021968111EDCF01C081E0DF91CF911F9126
:100330000F91FF90EF90DF900895DF92EF92FF9280
:100340000F931F93CF93DF93D82E8A017B01E40E86
:10035000F51EEB01CE15DF0571F0D7FE03C0FE01DF
:10036000849101C088810E943A0121968111F2CFC7
:100370008FEF9FEF01C0C801DF91CF911F910F91C7
:10038000FF90EF90DF900895615030F02091F100E0
:10039000FC0120830196F8CF289884E68093AA0177
:1003A0000895CF92DF92EF92FF920F931F93CF9316
:1003B000DF936C017A018B01C0E0D0E0CE15DF0540
:1003C00081F0D8016D918D01D601ED91FC910190E4
:1003D000F081E02DC6010995892B11F02196EECF11
:1003E0007E01C701DF91CF911F910F91FF90EF9098
:1003F000DF90CF900895CF93DF931F92CDB7DEB7F4
:100400006983DC01ED91FC910280F381E02D41E0F4
:1004100050E0BE016F5F7F4F09950F90DF91CF9144
:10042000089583E08093E9008091F200882319F019
:100430008AE38093E8000895FC018485958597FD03
:100440000BC09FB7F89482E08093E9008091F2009E
:100450009FBF90E0019608959FB7F89482E0809343
:10046000E9008091F2009FBF90E00895089580E038
:1004700090E008952E98269A2D98259A2A98229AE7
:100480002998219A88EA8093800081E180938100F5
:1004900080E991E090938700809386001092890014
:1004A0001092880010928B0010928A0010928D009A
:1004B00010928C0008958CB190E095958795959554
:1004C0008795482F417023B130E054E0359527954A
:1004D0005A95E1F7822793278170209184015091EA
:1004E00085016091AE017091AF01922F9427292F61
:1004F00030E0982F9527291B3109260F371F30939D
:10050000AF012093AE012091840190918501821763
:1005100029F0941719F091E090938301809384015E
:100520004093850108954FB141708CB186FB8827B7
:1005300080F9842720918101509182016091AC0162
:100540007091AD01922F9427292F30E0982F952795
:10055000291B3109260F371F3093AD012093AC01C1
:100560002091810190918201821729F0941719F04E
:1005700091E09093800180938101409382010895DE
:10058000CF93DF93DC0118968C911897811157C097
:1005900081E018968C9318971A968C911A97199651
:1005A0002C91199730E0F901E15AFE4F882309F1A7
:1005B0008491F901E05CFE4F2491222309F43BC0B1
:1005C00030E0220F331FF901EC5DFE4F459154914D
:1005D000F901EA5EFE4FC591D4912FB7F894FA0164
:1005E0009081382F309593239083E8818E2B8883D8
:1005F00021C08491F901E05CFE4F24912223D9F0BF
:1006000030E0220F331FF901EC5DFE4F459154910C
:10061000F901EA5EFE4FC591D4912FB7F894FA0123
:100620009081382F3095892F832380838881E32F11
:10063000E823E8832FBF8FE090E00197F1F7199648
:100640008C91199790E0FC01E258FE4F4491FC0117
:10065000E15AFE4F2491FC01E05CFE4F8491882317
:1006600009F44DC04423E1F150E0FA013197EF3035
:10067000F105B0F5EA5AFF4F0C94C5119091800036
:100680009F7707C0909180009F7D03C0909180006C
:10069000977F9093800024C094B59F7702C094B553
:1006A0009F7D94BD1DC0909190009F7707C0909151
:1006B00090009F7D03C090919000977F9093900051
:1006C0000FC09091C0009F7703C09091C0009F7DA4
:1006D0009093C00005C09091C200977F9093C20094
:1006E000E82FF0E0EE0FFF1FEE5CFE4FC591D491B6
:1006F000E881E22331E009F430E0832F02C080E09A
:1007000090E01B962C9182278170DF91CF91089504
:100710000E946E150F931F93CF93DF931F92CDB757
:10072000DEB782E0898342E450E06DE971E080E861
:100730000E949D010E94E309DC0112960D911C911B
:1007400013970115110589F0D801ED91FC910280F4
:10075000F381E02DBE016F5F7F4FC801099597FDC2
:1007600004C0F80100851185ECCF89810F90DF91DD
:10077000CF911F910F9108958F929F92AF92BF9248
:10078000CF92DF92EF92FF920F931F93CF93DF935D
:100790006C017B018A0180910B01882309F458C008
:1007A0008091AB01882309F453C080919D0180FFA3
:1007B00005C08091E00082608093E000E801B12CE8
:1007C0008AEFA82E93E0892E2AE3922E209711F427
:1007D000BB20B9F10E94B809811106C0AA94AA20D1
:1007E000B9F10E94C909F2CF282F30E0C217D30710
:1007F0000CF48C2F9FB7F8948092E9002091E800C8
:1008000025FF1DC0282F30E0C21BD30BF7018150FC
:1008100020F041914093F100FACFE20EF31EBB208D
:1008200019F09092E8000AC08091E80085FD07C0A9
:100830009092E800BB24B394209709F0B12C9FBF9D
:10084000C5CF5D9884E680939C011016110644F094
:1008500081E090E0F6019383828380E090E001C024
:10086000C801DF91CF911F910F91FF90EF90DF9022
:10087000CF90BF90AF909F908F9008950E94B8093D
:1008800090E008950F931F93CF93DF931F92CDB7FE
:10089000DEB78C01FC018485958597FF0EC0CE01E3
:1008A00001960E948A09019719F4898190E002C09B
:1008B0008FEF9FEFF80195878487F80184859585F0
:1008C0000F90DF91CF911F910F910895CF93DF93F8
:1008D0001F92CDB7DEB7FC018485958597FD05C0D5
:1008E0002FEF3FEF358724870BC0CE0101960E9482
:1008F0008A09019719F4898190E002C08FEF9FEF78
:100900000F90DF91CF9108951F920F920FB60F9223
:1009100011242F933F938F939F93AF93BF93809115
:10092000A2019091A301A091A401B091A5013091E1
:10093000A10123E0230F2D3720F40196A11DB11D45
:1009400005C026E8230F0296A11DB11D2093A10129
:100950008093A2019093A301A093A401B093A50159
:100960008091A6019091A701A091A801B091A90141
:100970000196A11DB11D8093A6019093A701A0939C
:10098000A801B093A901BF91AF919F918F913F9121
:100990002F910F900FBE0F901F9018951F920F92DE
:1009A0000FB60F9211242F933F934F935F936F9342
:1009B0007F938F939F93AF93BF93EF93FF93E091B8
:1009C0001401F09115010995FF91EF91BF91AF913D
:1009D0009F918F917F916F915F914F913F912F9157
:1009E0000F900FBE0F901F9018951F920F920FB689
:1009F0000F9211242F933F934F935F936F937F93A5
:100A00008F939F93AF93BF93EF93FF93E091120166
:100A1000F09113010995FF91EF91BF91AF919F91D3
:100A20008F917F916F915F914F913F912F910F9097
:100A30000FBE0F901F9018951F920F920FB60F9236
:100A400011242F933F934F935F936F937F938F93D3
:100A50009F93AF93BF93EF93FF93E0911001F091B9
:100A600011010995FF91EF91BF91AF919F918F91E6
:100A70007F916F915F914F913F912F910F900FBE9A
:100A80000F901F9018951F920F920FB60F9211247E
:100A90002F933F934F935F936F937F938F939F9386
:100AA000AF93BF93EF93FF93E0910E01F0910F018D
:100AB0000995FF91EF91BF91AF919F918F917F9198
:100AC0006F915F914F913F912F910F900FBE0F90BB
:100AD0001F9018951F920F920FB60F9211242F930B
:100AE0003F934F935F936F937F938F939F93AF93B6
:100AF000BF93EF93FF93E0910C01F0910D010995E5
:100B0000FF91EF91BF91AF919F918F917F916F91E5
:100B10005F914F913F912F910F900FBE0F901F90BB
:100B200018951F920F920FB60F9211248F939F93D7
:100B30008091E1009091E100937F9093E10083FF29
:100B40000FC01092E90091E09093EB001092EC003E
:100B500092E39093ED001092AB0198E09093F00037
:100B600082FF20C093E09093E9009091F2009923D6
:100B700019F09AE39093E80090919C01992339F041
:100B800090919C01915090939C01992389F19091AF
:100B9000AA01992339F09091AA0191509093AA014A
:100BA000992341F184FF10C08091E2008E7E816024
:100BB0008093E2008091E1008F7E8093E10080913C
:100BC0009D018E7E806111C080FF16C08091E20081
:100BD0008E7E80618093E2008091E1008E7E809322
:100BE000E10080919D018E7E816080939D0104C013
:100BF0005D9ACDCF289AD6CF9F918F910F900FBE3F
:100C00000F901F9018951F920F920FB60F921124FC
:100C1000CF92DF92EF92FF920F931F932F933F9308
:100C20004F935F936F937F938F939F93AF93BF93F4
:100C3000EF93FF93CF93DF93CDB7DEB76C97DEBF13
:100C4000CDBF1092E9008091E80083FFFBC168E00E
:100C5000CE0145960E94C40182EF8093E8008D8901
:100C600087FF05C09091E80090FFFCCF03C09EEF86
:100C70009093E800982F907609F0C6C09E894F891E
:100C8000588D2F89F88C91110CC0803829F48091EF
:100C90009E018093F10002C01092F1001092F100C9
:100CA00045C1913051F4811141C14130510509F0E4
:100CB0003DC180919E018D7F0BC0933061F4811105
:100CC00035C14130510509F031C180919E018260EA
:100CD00080939E012BC1953049F48091E80080FFFC
:100CE000FCCF822F80688093E30020C1963009F00A
:100CF0005EC00B8D1C8D22E01092E90010929A01CB
:100D000010929901F21232C010929801109297013C
:100D10000E948A0399E0BE016F5F7F4FDB01E92FDC
:100D20001D92EA95E9F79983FA8291E09E8390EA11
:100D300098879AEF99872091990130919A01275FBE
:100D40003F4F3C832B838D831092E90010929A01D0
:100D500010929901109398010093970149E050E097
:100D600080E00E949D010E948A03E0C010939801D8
:100D7000009397010E94E309DC0112960D911C91EA
:100D800013970115110509F4BBC0D801ED91FC9131
:100D90000480F581E02DBE016B5E7F4FC80109958F
:100DA000009709F0C7C0F80100851185EACF973098
:100DB00009F445C1983021F481E08093F100B6C078
:100DC000993009F0B3C0837009F039C1E9E4F1E06A
:100DD00081E031E096E32081211109C08EE7809304
:100DE000EA001092EA008F898093AB019FC0809344
:100DF000E9003093EB0021912093EC009093ED00FB
:100E00008F5F873041F7EACF8B8D9C8D1092E90080
:100E100010929A01109299019093980180939701F2
:100E2000898D811153C08E899D89913A49F481320F
:100E300009F005C147E050E064E071E080E0BBC02C
:100E4000913209F0FCC0833269F48F89988DA0E05B
:100E5000B0E08093000190930101A0930201B09350
:100E6000030164C0803269F48091E80082FFFCCF06
:100E700067E084E091E00E94C4018BEF8093E8007A
:100E800055C0823209F052C08F8980930B01EEEF7A
:100E9000FFE7859194918B3F9C4D19F0E0E0F8E0DD
:100EA00002C0EEEFFAE08091040190910501A0915B
:100EB0000601B0910701803B9440A105B10509F0FE
:100EC0009EC080910B0180FF79C099C00E94E30908
:100ED000FC01028113810115110509F4B0C0D8018C
:100EE000ED91FC910190F081E02DBE016B5E7F4F92
:100EF000C801099581111AC0F80100851185EBCF51
:100F0000F1E0FF1609F44EC0F3E0FF1298C08F899C
:100F1000882309F44AC0823089F440E862E188E01D
:100F200092E00E946801882309F489C08EEF8093C3
:100F3000E80088C018161906CCF381C0813029F466
:100F400040E862E185EF91E0ECCF833009F077C0B3
:100F50000E94E309DC011296ED90FC9013978E013C
:100F60000F5F1F4F6801E114F10479F0D701ED9193
:100F7000FC910680F781E02DB801C7010995080FA3
:100F8000111DF701E084F184EECFD8011C92F60127
:100F900001900020E9F73197BF016C197D0940E00D
:100FA000C601BFCF63EE71E002C06FED71E0FB01DF
:100FB000449150E080E80E949D01B8CFEE3F2AE0C6
:100FC000F20751F0808191818737A7E79A0721F0D6
:100FD0009093FF0A8093FE0A87E797E791838083C7
:100FE0008091600080939B019BE088E10FB6F894AC
:100FF000A895809360000FBE9093600097CF80818A
:1010000091818737974709F091CFA895809160002B
:1010100088618093600080919B0180936000EE3F27
:10102000BAE0FB0739F08091FE0A9091FF0A9183A4
:1010300080837CCF1092FF0A1092FE0A77CF81E264
:101040008093EB006C960FB6F894DEBF0FBECDBF59
:10105000DF91CF91FF91EF91BF91AF919F918F91D0
:101060007F916F915F914F913F912F911F910F91C0
:10107000FF90EF90DF90CF900F900FBE0F901F90DA
:1010800018951F920F920FB60F9211242F933F9332
:101090004F935F936F937F938F939F93AF93BF9380
:1010A000EF93FF93CF93DF9300D01F92CDB7DEB7BE
:1010B00083B18983998180911D0289278A839091C8
:1010C0006B008A8189238B838B8180FF05C0E0912F
:1010D0008701F091880109958B8181FF05C0E0911E
:1010E0008901F0918A0109958B8182FF05C0E09109
:1010F0008B01F0918C0109958B8183FF05C0E091F4
:101100008D01F0918E0109958B8184FF05C0E091DE
:101110008F01F091900109958B8185FF05C0E091C9
:101120009101F091920109958B8186FF05C0E091B4
:101130009301F091940109958B8187FF05C0E0919F
:101140009501F09196010995898180931D020F9078
:101150000F900F90DF91CF91FF91EF91BF91AF91E1
:101160009F918F917F916F915F914F913F912F91BF
:101170000F900FBE0F901F901895CF93DF93EC0147
:1011800080918601811105C081E0809386010E94D3
:101190003A02D7FF05C0D195C195D10981E001C0C0
:1011A00080E0CD3291E0D90714F0CCE2D1E0D093C9
:1011B0008900C0938800882311F0299A01C02998DA
:1011C000219ADF91CF910895CF93DF93EC01809125
:1011D0008601811105C081E0809386010E943A0258
:1011E000D7FF05C0D195C195D10981E001C080E04C
:1011F000CD3291E0D90714F0CCE2D1E0D0938B004E
:10120000C0938A00882311F02A9A01C02A98229A52
:10121000DF91CF91089524982C9A6A98729A6E98CB
:10122000769A8098889AF89491E090936800EBE61B
:10123000F0E08081806180832BE532E03093900183
:1012400020938F019BBB80911D028F7E80931D0296
:1012500083B190911D028071892B80931D02789437
:1012600083E992E09093150180931401EAE6F0E09F
:1012700080818F7C80618083EE9A8CB182FB88278D
:1012800080F98093850183B1909185018295817069
:101290008927809384011092AF011092AE011092C1
:1012A00083018FB18170809382019CB12091820172
:1012B00096FB882780F98227809381011092AD01E7
:1012C0001092AC011092800108953FB7F89480917C
:1012D000A6019091A701A091A801B091A90126B5FE
:1012E000A89B05C02F3F19F00196A11DB11D3FBF5E
:1012F000BA2FA92F982F8827820F911DA11DB11DEC
:10130000BC01CD0142E0660F771F881F991F4A95E7
:10131000D1F708952091AB01211103C08FEF9FEF0A
:1013200008955FB7F89422E02093E9002091F2003D
:1013300030E01216130614F421E030E0422FFC01D5
:1013400084E6415038F028988093AA019091F100EA
:101350009193F7CF2115310521F08091F200882378
:1013600019F05FBFC90108958BE68093E800F9CFBB
:101370002FB7F89483E08093E9009091E800892FDB
:10138000807295FF04C09091F20080E4891B2FBF0A
:101390000895CF92DF92EF92FF920E9465096B0150
:1013A0007C010E946509DC01CB018C199D09AE0905
:1013B000BF09883E9340A105B10598F3FF90EF90D7
:1013C000DF90CF9008958091B40181110DC082E02B
:1013D0008093B00184E08093B1011092B301109228
:1013E000B20181E08093B40180EB91E008952FB7C2
:1013F000F8946091A2017091A3018091A401909151
:10140000A5012FBF08954F925F926F927F928F92A6
:101410009F92AF92BF92CF92DF92EF92FF921F9373
:10142000CF93DF93CDB7DEB7E0970FB6F894DEBF6A
:101430000FBECDBF69A77AA78BA79CA72DA73EA7F4
:101440004FA758AB11E020911E0230911F0240912E
:1014500020025091210229A33AA34BA35CA38091BF
:10146000220290912302A0912402B09125028DA323
:101470009EA3AFA3B8A720912602309127024091E6
:1014800028025091290229873A874B875C8729A136
:101490003AA14BA15CA169A57AA58BA59CA50E9448
:1014A000CB114B015C012DA13EA14FA158A56DA50B
:1014B0007EA58FA598A90E94CB116B017C019B0191
:1014C000AC010E9481142B013C01A5019401C501CE
:1014D000B4010E9481149B01AC01C301B2010E94BE
:1014E000CC110E94FC142B013C01609344017093C9
:1014F00045018093460190934701A5019401C701DE
:10150000B6010E944B1229853A854B855C850E9465
:10151000CB116D8F7E8F8F8F98A320E030E048EC49
:1015200052E4C301B2010E9481146B017C0120E0EE
:1015300030E048EC52E46D8D7E8D8F8D98A10E9435
:1015400081144B015C019B01AC01C701B6010E94F3
:10155000CB1169877A878B879C8720E030E048E44D
:1015600052EC0E94AA1287FD15C020E030E048E44A
:1015700052E469857A858B859C850E9474141816BF
:101580008CF480E090E0A8E4B2E489879A87AB8786
:10159000BC8708C020E030E048E452EC29873A8755
:1015A0004B875C87A5019401C701B6010E94CC114D
:1015B0006D877E878F87988B20E030E048E452EC7F
:1015C0000E94AA1287FD15C020E030E048E452E4F2
:1015D0006D857E858F8598890E94741418168CF409
:1015E00080E090E0A8E4B2E48D879E87AF87B88B57
:1015F00008C020E030E048E452EC2D873E874F875A
:10160000588B0E94F7096B017C018091C901909170
:10161000CA01A091CB01B091CC01B701A601481B32
:10162000590B6A0B7B0B8091300190913101092E8F
:10163000000CAA0BBB0B481759076A077B0708F475
:1016400011C38091C7019091C8019093C601809306
:10165000C5018091C3019091C4019093C201809310
:10166000C1018091C001811104C01093C0010E948A
:101670000B09F8948091AE019091AF01789490930A
:10168000C8018093C7018091C001811104C01093EB
:10169000C0010E940B09F8944091AC015091AD013A
:1016A0005A83498378945093C4014093C3010E94A4
:1016B000F709C092C901D092CA01E092CB01F09221
:1016C000CC012DEC3CEC4CE45DE36091BC017091ED
:1016D000BD018091BE019091BF010E94CC11609329
:1016E000BC017093BD018093BE019093BF01209116
:1016F00024013091250140912601509127016091EC
:101700002C0170912D0180912E0190912F010E944A
:10171000B4124B015C016091C7017091C8018091C6
:10172000C5019091C601681B790B072E000C880B30
:10173000990B0E945E136D8B7E8B8F8B988F6091BF
:10174000300170913101072E000C880B990B0E941B
:101750005E1320E030E04AE754E40E94B4126B01CB
:101760007C012D893E894F89588DC501B4010E94A5
:101770008114A70196010E94B4129B01AC016985F6
:101780007A858B859C850E94CB112B013C01809131
:10179000C1019091C201A981BA81A81BB90BBD01F9
:1017A000BB0F880B990B0E945E136D837E838F8322
:1017B0009887A50194010E948114A70196010E94B7
:1017C000B4129B01AC016D857E858F8598890E943E
:1017D000CB1169837A838B839C8320913A0130916A
:1017E0003B0140913C0150913D01C301B2010E9477
:1017F000CC114B015C0160933A0170933B018093E3
:101800003C0190933D0120913E0130913F01409178
:1018100040015091410169817A818B819C810E94B4
:10182000CC11698F7A8F8B8F9C8F60933E01709360
:101830003F018093400190934101C0903201D090CC
:101840003301E0903401F090350120913601309160
:1018500037014091380150913901298B3A8B4B8BDC
:101860005C8BA7019601C301B2010E9481142B0178
:101870003C0129893A894B895C89C501B4010E94E0
:1018800081149B01AC01C301B2010E94CC110E94E2
:101890002613CB010E94E408A701960169817A8191
:1018A0008B819C810E9481146B017C0129893A897A
:1018B0004B895C89698D7A8D8B8D9C8D0E948114FA
:1018C0009B01AC01C701B6010E94CC110E942613F6
:1018D000CB010E94BD080E94F709698B7A8B8B8B24
:1018E0009C8B60932E0270932F0280933002909312
:1018F000310280912A0290912B02A0912C02B0918A
:101900002D0229893A894B895C89281B390B4A0B9E
:101910005B0BCA01B901223331054105510508F4B9
:10192000A1C10E945C1320E030E04AE754E40E9429
:10193000B41269837A838B839C8320911601309142
:101940001701409118015091190160911E01709189
:101950001F0180912001909121010E94B4122B015E
:101960003C016091220170912301072E000C880B2D
:10197000990B0E945E1320E030E04AE754E40E9495
:10198000B4124B015C01A30192016D897E898F899C
:10199000988D0E948114A50194010E94B41220E048
:1019A00030E04AE754E40E94B4126B017C01A301C9
:1019B00092016D817E818F8198850E948114A5019D
:1019C00094010E94B41220E030E04AE754E40E94FF
:1019D000B4124B015C019B01AC01C701B6010E942E
:1019E000CC112B013C01A7019601C501B4010E9455
:1019F000CB116D8B7E8B8F8B988F80913202909163
:101A00003302A0913402B09135028D839E83AF835F
:101A1000B8879C01AD016D897E898F89988D0E9460
:101A2000B41229813A814B815C810E948114698FB3
:101A30007A8F8B8F9C8FA5019401C701B6010E94FC
:101A4000AA128090260290902702A0902802B090BF
:101A5000290220E030E040E05FE381115FC0C30174
:101A6000B2010E9481146B017C01C501B4010E9486
:101A7000AF129B01AC01C701B6010E9481142981FC
:101A80003A814B815C810E9481149B01AC01609181
:101A90001E0270911F0280912002909121020E94EB
:101AA000CC1160931E0270931F02809320029093CA
:101AB0002102C501B4010E94EE149B01AC01C701D3
:101AC000B6010E94811429813A814B815C810E9478
:101AD00081149B01AC0160912202709123028091DC
:101AE0002402909125020E94CC11609322027093EF
:101AF00023028093240290932502A5019401698D0D
:101B00007A8D8B8D9C8D0E94CC11609326027093F0
:101B10002702809328029093290298C06D817E81CC
:101B20008F8198850E948114A30192010E948114E3
:101B30002D893E894F89588D0E94B4126B017C011A
:101B4000C501B4010E94EE146D837E838F83988754
:101B5000A5019401698D7A8D8B8D9C8D0E94CC118D
:101B600069837A838B839C830E94EE142B013C0152
:101B70002D813E814F815885C701B6010E94811495
:101B80009B01AC0160911E0270911F0280912002A6
:101B9000909121020E94CB116D837E838F83988761
:101BA000A3019201C701B6010E9481149B01AC01FF
:101BB0006D817E818F8198850E94CC1160931E0279
:101BC00070931F028093200290932102C501B401FB
:101BD0000E94AF124B015C0169817A818B819C81EB
:101BE0000E94AF122B013C01A5019401C701B6016F
:101BF0000E948114209122023091230240912402FC
:101C0000509125020E94CC114B015C01A30192016D
:101C1000C701B6010E9481149B01AC01C501B4014A
:101C20000E94CB11609322027093230280932402BE
:101C30009093250229813A814B815C812093260271
:101C400030932702409328025093290289899A8968
:101C5000AB89BC8980932A0290932B02A0932C021B
:101C6000B0932D0242E069A57AA58BA59CA50E94A0
:101C7000380F89E00E94330F42E069A17AA18BA15D
:101C80009CA10E94380F89E00E94330F42E06DA5AD
:101C90007EA58FA598A90E94380F89E00E94330F76
:101CA00042E06DA17EA18FA198A50E94380F89E026
:101CB0000E94330F42E069857A858B859C850E945E
:101CC000380F89E00E94330F42E06D857E858F8555
:101CD00098890E94380F89E00E94330F6091440177
:101CE00070914501809146019091470142E00E9428
:101CF000380F89E00E94330F42E06D8D7E8D8F8D0D
:101D000098A10E94380F8DE691E00E94210F2FE8E4
:101D100032EC45EF5CE360914401709145018091A4
:101D20004601909147010E94741487FF8CCBE09686
:101D30000FB6F894DEBF0FBECDBFDF91CF911F91DC
:101D4000FF90EF90DF90CF90BF90AF909F908F90DB
:101D50007F906F905F904F900895CF93DF9380E0D6
:101D600090E00E94E40880E090E00E94BD08CEE18F
:101D7000D2E0188219821A821B821C821D821E8266
:101D80001F82188619861A861B860E94F7096C879F
:101D90007D878E879F871092BC011092BD011092A3
:101DA000BE011092BF01DF91CF910895CF93DF93D1
:101DB00086E392E00E94C002D1E0C82FCD270E94A6
:101DC000F70920913B02213079F028F02230E1F030
:101DD000233021F131C0C1112FC070933D026093B7
:101DE0003C02D0933B0229C0CC2319F010923B0255
:101DF00023C020913C0230913D02621B730B6F3077
:101E00007105D8F082E007C0CC23B9F070933D0291
:101E100060933C0283E080933B020EC0CC2391F39D
:101E200020913C0230913D02621B730B6F307105B3
:101E300018F010923B0201C0C0E08C2FDF91CF91CF
:101E40000895009769F0FC0101900020E9F73197AF
:101E5000AF01481B590BBC018DEC91E00C94BC0305
:101E600080E090E00895682F8DEC91E00C94FB01E8
:101E70002F923F924F925F926F927F928F929F929A
:101E8000AF92BF92CF92DF92EF92FF920F931F9388
:101E9000CF93DF93CDB7DEB7A4970FB6F894DEBF2C
:101EA0000FBECDBF4B015C01F42E9B01AC010E9423
:101EB0004015882319F084E791E027C024013501FB
:101EC000E89477F82FEF3FEF4FE75FE7C301B201E8
:101ED0000E94401581110DC02FEF3FEF4FE75FE7E4
:101EE000C301B2010E94AA1218161CF488E791E0FF
:101EF0000CC02FEF3FEF4FE75FE4C501B4010E9434
:101F0000741418162CF48CE791E00E94210FB4C0D1
:101F10002FEF3FEF4FE75FECC501B4010E94AA121B
:101F200087FDF1CF20E030E0A901C501B4010E9496
:101F3000AA1287FF09C08DE20E94330F3C01B7FA55
:101F4000B094B7F8B09402C0612C712C10E060E03E
:101F500070E080E09FE3F11641F020E030E040E2E5
:101F600051E40E94B4121F5FF6CFA50194010E94B4
:101F7000CC114B015C010E942D136AA3C72ED82EF1
:101F8000E92E19A2262F372F482F592F8E010F5DCA
:101F90001F4F0BA31CA39AE0292E312C412C512C4E
:101FA000CA01B901A20191010E94A311605DF8016B
:101FB00062938F01211531054105510589F7CF0144
:101FC0000E94210F8301080F191FFF2009F453C03D
:101FD0006AA17C2D8D2D9E2D0E945C139B01AC016E
:101FE000C501B4010E94CB114B015C018EE20E943D
:101FF000330F080F191F8AE0282E312C412C512C49
:1020000020E030E040E251E4C501B4010E948114B7
:102010004B015C010E942D139B0140E050E019A28E
:10202000CBA0DCA0762E3AA3642EE52ECA01B9011E
:10203000A20191010E94A311605DF60162936F01FC
:10204000211531054105510589F7CF010E94210F66
:10205000080F191F672D7AA1862D9E2D0E945C13F3
:102060009B01AC01C501B4010E94CB114B015C0185
:10207000FA94F110C5CFC801A4960FB6F894DEBF4C
:102080000FBECDBFDF91CF911F910F91FF90EF90C9
:10209000DF90CF90BF90AF909F908F907F906F9088
:1020A0005F904F903F902F900895789484B5826010
:1020B00084BD84B5816084BD85B5826085BD85B5EC
:1020C000816085BD80916E00816080936E0010926A
:1020D00081008091810082608093810080918100E5
:1020E0008160809381008091800081608093800076
:1020F0008091910082608093910080919100816035
:1021000080939100809190008160809390008091F5
:10211000C10084608093C1008091C100826080937F
:10212000C1008091C10081608093C1008091C30093
:1021300081608093C3008091C00082608093C00062
:102140008091C20081608093C20080917A00846097
:1021500080937A0080917A00826080937A008091E7
:102160007A00816080937A0080917A008068809301
:102170007A001092AB0110929E0110929D01809105
:10218000D70081608093D70080EA8093D80089B51A
:10219000806189BD89B5826089BD09B400FEFDCF2B
:1021A0000E94C9098091D8008F7C80618093D800FB
:1021B0008091E000807F8093E0008091E1008E7E3E
:1021C0008093E1008DE08093E200559A209A10926E
:1021D0001E0210921F0210922002109221021092F1
:1021E00022021092230210922402109225021092D1
:1021F00026021092270210922802109229020E94B1
:10220000F70960932A0270932B0280932C0290931B
:102210002D02C0E0D0E001E010E080919F0190919C
:10222000A001009719F0019789F053C00E94D60EC3
:10223000882329F01093A00100939F0104C01092FD
:10224000A00110929F010E94AD0E43C00E94D60EC5
:102250008111F5CF87E691E00E94210F8DE691E094
:102260000E94210F20E030E040E05FE3CA01B901A5
:102270000E94030A20E030E040E05FE360E070E0AD
:1022800080E89FE30E94030A20E030E0A90160E0BB
:1022900070E080E89FE30E94030A20E030E0A9019B
:1022A00060E070E080E09FE30E94030A20E030E0FD
:1022B000A901CA01B9010E94030A80E791E00E94C6
:1022C000210F8DE691E00E94210F1092A001109243
:1022D0009F01209709F4A1CF0E9400009ECFEDEC52
:1022E000F1E01382128288EE93E0A0E0B0E08483F4
:1022F0009583A683B78383E591E0918380838FEFF5
:102300009FEF9587848783B180931D0283ED9DE4C1
:10231000A2E1BEE38093320290933302A093340291
:10232000B09335020E94F709E6E3F2E012821582CB
:1023300010868EE0818781E08287838785E691E041
:10234000918380830895A1E21A2EAA1BBB1BFD0175
:102350000DC0AA1FBB1FEE1FFF1FA217B307E40784
:10236000F50720F0A21BB30BE40BF50B661F771FDC
:10237000881F991F1A9469F76095709580959095BC
:102380009B01AC01BD01CF010895EE0FFF1F059029
:10239000F491E02D09945058BB27AA270E94E3111D
:1023A0000C9426140E94ED1338F00E94F41320F0D0
:1023B00039F49F3F19F426F40C94C3130EF4E095FE
:1023C000E7FB0C94BD13E92F0E944B1458F3BA1786
:1023D000620773078407950720F079F4A6F50C943B
:1023E0006D140EF4E0950B2EBA2FA02D0B01B90140
:1023F00090010C01CA01A0011124FF27591B99F07B
:10240000593F50F4503E68F11A16F040A22F232F86
:10241000342F4427585FF3CF469537952795A795D6
:10242000F0405395C9F77EF41F16BA0B620B730B7D
:10243000840BBAF09150A1F0FF0FBB1F661F771FEE
:10244000881FC2F70EC0BA0F621F731F841F48F4A3
:10245000879577956795B795F7959E3F08F0B0CF2C
:102460009395880F08F09927EE0F97958795089513
:102470000E94ED1360F080E891E009F49EEF0E9465
:10248000F41328F040E851E071F45EEF0CC00C94B6
:10249000C3130C946D14E92FE0780E944B1440F3A1
:1024A000092E052AB1F3261737074807590738F0D0
:1024B0000E2E07F8E02569F0E025E0640AC0EF631E
:1024C00007F8009407FADB01B9019D01DC01CA019C
:1024D000AD01EF930E94CB120E9426140E947B1242
:1024E0005F91552339F02BED3FE049E450FD49EC75
:1024F0000C94CC110895DF93DD27B92FBF7740E806
:102500005FE31616170648075B0718F4D92F0E94D9
:1025100079149F938F937F936F930E943C15EAECFD
:10252000F0E00E94C6130E9426142F913F914F9114
:102530005F910E949414DD2351F09058A2EA2AED95
:102540003FE049EC5FE3D0785D270E94E311DF9123
:102550000C9426140E94991308F481E008950E94B7
:10256000FD13E3950C9437140E94C8120C942614A2
:102570000E94F41358F00E94ED1340F029F45F3FDD
:1025800029F00C94BD1351110C946E140C94C313C8
:102590000E944B1468F39923B1F3552391F3951BD3
:1025A000550BBB27AA2762177307840738F09F5F74
:1025B0005F4F220F331F441FAA1FA9F335D00E2EE1
:1025C0003AF0E0E832D091505040E695001CCAF74E
:1025D0002BD0FE2F29D0660F771F881FBB1F261711
:1025E00037074807AB07B0E809F0BB0B802DBF01E8
:1025F000FF2793585F4F3AF09E3F510578F00C94B7
:10260000BD130C946E145F3FE4F3983ED4F38695AB
:1026100077956795B795F7959F5FC9F7880F911DD7
:102620009695879597F90895E1E0660F771F881FC3
:10263000BB1F621773078407BA0720F0621B730B76
:10264000840BBA0BEE1F88F7E09508950E942D13B6
:102650006894B1110C946E1408950E94531488F07C
:102660009F5798F0B92F9927B751B0F0E1F0660F56
:10267000771F881F991F1AF0BA95C9F714C0B13097
:1026800091F00E946D14B1E008950C946D14672FC1
:10269000782F8827B85F39F0B93FCCF386957795C6
:1026A0006795B395D9F73EF49095809570956195AF
:1026B0007F4F8F4F9F4F0895E89409C097FB3EF4DA
:1026C00090958095709561957F4F8F4F9F4F99237F
:1026D000A9F0F92F96E9BB279395F69587957795FD
:1026E0006795B795F111F8CFFAF4BB0F11F460FFBD
:1026F0001BC06F5F7F4F8F4F9F4F16C0882311F015
:1027000096E911C0772321F09EE8872F762F05C028
:10271000662371F096E8862F70E060E02AF09A95C3
:10272000660F771F881FDAF7880F9695879597F9B8
:102730000895990F0008550FAA0BE0E8FEEF161652
:102740001706E807F907C0F012161306E407F507A5
:1027500098F0621B730B840B950B39F40A2661F019
:10276000232B242B252B21F408950A2609F4A140BC
:10277000A6958FEF811D811D089597F99F6780E8C9
:1027800070E060E008959FEF80EC0895DF93CF93B1
:102790001F930F93FF92EF92DF927B018C0168945D
:1027A00006C0DA2EEF010E949414FE01E894A59170
:1027B0002591359145915591A6F3EF010E94E311C2
:1027C000FE019701A801DA9469F7DF90EF90FF907E
:1027D0000F911F91CF91DF91089500240A9416164E
:1027E000170618060906089500240A9412161306FF
:1027F0001406050608950C94C3130E945314D8F3CD
:10280000E894E0E0BB279F57F0F02AED3FE049EC69
:1028100006C0EE0FBB0F661F771F881F28F0B23A65
:1028200062077307840728F0B25A620B730B840B9C
:10283000E3959A9572F7803830F49A95BB0F661F2E
:10284000771F881FD2F790480C944715092E0394E0
:10285000000C11F4882352F0BB0F40F4BF2B11F48D
:1028600060FF04C06F5F7F4F8F4F9F4F0895EF93BE
:10287000E0FF07C0A2EA2AED3FE049EC5FEB0E94CF
:10288000E3110E9426140F90039401FC9058E7EF87
:10289000F0E00C945A1557FD9058440F551F59F00D
:1028A0005F3F71F04795880F97FB991F61F09F3F3D
:1028B00079F087950895121613061406551FF2CF66
:1028C0004695F1DF08C0161617061806991FF1CFB6
:1028D00086957105610508940895E894BB276627DD
:1028E0007727CB0197F908950E94991308F48FEF89
:1028F00008959B01AC0160E070E080E89FE30C94D8
:10290000B4120E9494140C9426140E94ED1338F013
:102910000E94F41320F0952311F00C94BD130C9435
:10292000C31311240C946E140E944B1470F3959FE2
:10293000C1F3950F50E0551F629FF001729FBB27B6
:10294000F00DB11D639FAA27F00DB11DAA1F649F52
:102950006627B00DA11D661F829F2227B00DA11D05
:10296000621F739FB00DA11D621F839FA00D611D8B
:10297000221F749F3327A00D611D231F849F600DAC
:10298000211D822F762F6A2F11249F5750409AF0D5
:10299000F1F088234AF0EE0FFF1FBB1F661F771F61
:1029A000881F91505040A9F79E3F510580F00C942C
:1029B000BD130C946E145F3FE4F3983ED4F38695F8
:1029C00077956795B795F795E7959F5FC1F7FE2BCC
:1029D000880F911D9695879597F908959F930E946A
:1029E000FD130F9007FCEE5F0C94371419F416F4E6
:1029F0000C94C3130C9445150E945314B8F39923F7
:102A0000C9F3B6F39F57550B87FF0E945315002457
:102A1000A0E640EA900180585695979528F4805C8E
:102A2000660F771F881F20F026173707480730F4F6
:102A3000621B730B840B202931294A2BA69517940E
:102A40000794202531254A2758F7660F771F881FDE
:102A500020F026173707480730F4620B730B840BFE
:102A6000200D311D411DA09581F7B901842F91588A
:102A7000880F9695879508959B01AC010C9481145D
:102A80000E949913880B990B08959F3F31F0915044
:102A900020F4879577956795B795880F911D969542
:102AA000879597F9089591505040660F771F881FBA
:102AB000D2F708959F938F937F936F93FF93EF9334
:102AC0009B01AC010E948114EF91FF910E94C613FB
:102AD0002F913F914F915F910C94811481E090E090
:0A2AE000F8940C947315F894FFCFDE
:102AEA00FFFFFFFF00E1000000000000390139018B
:102AFA003901390139010000B44400000C4258E997
:102B0A005B4332000000B44400000C4258E95B43C6
:102B1A0032000000003FCDCCCC3D00000000000098
:102B2A000000AA050000000000C18081000000002A
:102B3A00000000FB01BC033E0411021C02660442B1
:102B4A000400000000C0027374617274000D0A0070
:102B5A00656E64006E616E00696E66006F7666006F
:00000001FF
